{
  "contractName": "Flashloan",
  "abi": [
    {
      "inputs": [
        {
          "name": "kyberAddress",
          "type": "address"
        },
        {
          "name": "uniswapAddress",
          "type": "address"
        },
        {
          "name": "wethAddress",
          "type": "address"
        },
        {
          "name": "daiAddress",
          "type": "address"
        },
        {
          "name": "beneficiaryAddress",
          "type": "address"
        }
      ],
      "payable": false,
      "stateMutability": "nonpayable",
      "type": "constructor"
    },
    {
      "anonymous": false,
      "inputs": [
        {
          "indexed": false,
          "name": "direction",
          "type": "uint8"
        },
        {
          "indexed": false,
          "name": "profit",
          "type": "uint256"
        },
        {
          "indexed": false,
          "name": "date",
          "type": "uint256"
        }
      ],
      "name": "NewArbitrage",
      "type": "event"
    },
    {
      "constant": false,
      "inputs": [
        {
          "name": "sender",
          "type": "address"
        },
        {
          "components": [
            {
              "name": "owner",
              "type": "address"
            },
            {
              "name": "number",
              "type": "uint256"
            }
          ],
          "name": "account",
          "type": "tuple"
        },
        {
          "name": "data",
          "type": "bytes"
        }
      ],
      "name": "callFunction",
      "outputs": [],
      "payable": false,
      "stateMutability": "nonpayable",
      "type": "function"
    },
    {
      "constant": false,
      "inputs": [
        {
          "name": "_solo",
          "type": "address"
        },
        {
          "name": "_token",
          "type": "address"
        },
        {
          "name": "_amount",
          "type": "uint256"
        },
        {
          "name": "_direction",
          "type": "uint8"
        }
      ],
      "name": "initiateFlashloan",
      "outputs": [],
      "payable": false,
      "stateMutability": "nonpayable",
      "type": "function"
    }
  ],
  "bytecode": "0x60806040523480156200001157600080fd5b5060405160a08062002996833981018060405262000033919081019062000198565b846000806101000a81548173ffffffffffffffffffffffffffffffffffffffff021916908373ffffffffffffffffffffffffffffffffffffffff16021790555083600160006101000a81548173ffffffffffffffffffffffffffffffffffffffff021916908373ffffffffffffffffffffffffffffffffffffffff16021790555082600260006101000a81548173ffffffffffffffffffffffffffffffffffffffff021916908373ffffffffffffffffffffffffffffffffffffffff16021790555081600360006101000a81548173ffffffffffffffffffffffffffffffffffffffff021916908373ffffffffffffffffffffffffffffffffffffffff16021790555080600460006101000a81548173ffffffffffffffffffffffffffffffffffffffff021916908373ffffffffffffffffffffffffffffffffffffffff16021790555050505050506200024e565b60006200019082516200023a565b905092915050565b600080600080600060a08688031215620001b157600080fd5b6000620001c18882890162000182565b9550506020620001d48882890162000182565b9450506040620001e78882890162000182565b9350506060620001fa8882890162000182565b92505060806200020d8882890162000182565b9150509295509295909350565b600073ffffffffffffffffffffffffffffffffffffffff82169050919050565b600062000247826200021a565b9050919050565b612738806200025e6000396000f3fe60806040526004361061004c576000357c0100000000000000000000000000000000000000000000000000000000900463ffffffff1680638b41871314610051578063c01314761461007a575b600080fd5b34801561005d57600080fd5b5061007860048036036100739190810190611c26565b6100a3565b005b34801561008657600080fd5b506100a1600480360361009c9190810190611bc3565b61108f565b005b6100ab6117fb565b818060200190516100bf9190810190611cf7565b90506000600360009054906101000a900473ffffffffffffffffffffffffffffffffffffffff1673ffffffffffffffffffffffffffffffffffffffff166370a08231306040518263ffffffff167c010000000000000000000000000000000000000000000000000000000002815260040161013a91906121ae565b60206040518083038186803b15801561015257600080fd5b505afa158015610166573d6000803e3d6000fd5b505050506040513d601f19601f8201168201806040525061018a9190810190611d20565b90506000600181111561019957fe5b826000015160018111156101a957fe5b141561079657600360009054906101000a900473ffffffffffffffffffffffffffffffffffffffff1673ffffffffffffffffffffffffffffffffffffffff1663095ea7b36000809054906101000a900473ffffffffffffffffffffffffffffffffffffffff16836040518363ffffffff167c01000000000000000000000000000000000000000000000000000000000281526004016102499291906121c9565b602060405180830381600087803b15801561026357600080fd5b505af1158015610277573d6000803e3d6000fd5b505050506040513d601f19601f8201168201806040525061029b9190810190611cce565b5060008060009054906101000a900473ffffffffffffffffffffffffffffffffffffffff1673ffffffffffffffffffffffffffffffffffffffff1663809a9e55600360009054906101000a900473ffffffffffffffffffffffffffffffffffffffff1673eeeeeeeeeeeeeeeeeeeeeeeeeeeeeeeeeeeeeeee856040518463ffffffff167c010000000000000000000000000000000000000000000000000000000002815260040161034e93929190612229565b604080518083038186803b15801561036557600080fd5b505afa158015610379573d6000803e3d6000fd5b505050506040513d601f19601f8201168201806040525061039d9190810190611d49565b5090506000809054906101000a900473ffffffffffffffffffffffffffffffffffffffff1673ffffffffffffffffffffffffffffffffffffffff16633bba21dc600360009054906101000a900473ffffffffffffffffffffffffffffffffffffffff1684846040518463ffffffff167c010000000000000000000000000000000000000000000000000000000002815260040161043c93929190612289565b602060405180830381600087803b15801561045657600080fd5b505af115801561046a573d6000803e3d6000fd5b505050506040513d601f19601f8201168201806040525061048e9190810190611d20565b50606060026040519080825280602002602001820160405280156104c15781602001602082028038833980820191505090505b509050600260009054906101000a900473ffffffffffffffffffffffffffffffffffffffff168160008151811015156104f657fe5b9060200190602002019073ffffffffffffffffffffffffffffffffffffffff16908173ffffffffffffffffffffffffffffffffffffffff1681525050600360009054906101000a900473ffffffffffffffffffffffffffffffffffffffff1681600181518110151561056457fe5b9060200190602002019073ffffffffffffffffffffffffffffffffffffffff16908173ffffffffffffffffffffffffffffffffffffffff16815250506060600160009054906101000a900473ffffffffffffffffffffffffffffffffffffffff1673ffffffffffffffffffffffffffffffffffffffff1663d06ca61f3073ffffffffffffffffffffffffffffffffffffffff1631846040518363ffffffff167c010000000000000000000000000000000000000000000000000000000002815260040161063292919061238d565b60006040518083038186803b15801561064a57600080fd5b505afa15801561065e573d6000803e3d6000fd5b505050506040513d6000823e3d601f19601f820116820180604052506106879190810190611c8d565b9050600160009054906101000a900473ffffffffffffffffffffffffffffffffffffffff1673ffffffffffffffffffffffffffffffffffffffff16637ff36ab53073ffffffffffffffffffffffffffffffffffffffff16318360018151811015156106ee57fe5b906020019060200201518530426040518663ffffffff167c010000000000000000000000000000000000000000000000000000000002815260040161073694939291906123bd565b6000604051808303818588803b15801561074f57600080fd5b505af1158015610763573d6000803e3d6000fd5b50505050506040513d6000823e3d601f19601f8201168201806040525061078d9190810190611c8d565b50505050610d7a565b600360009054906101000a900473ffffffffffffffffffffffffffffffffffffffff1673ffffffffffffffffffffffffffffffffffffffff1663095ea7b3600160009054906101000a900473ffffffffffffffffffffffffffffffffffffffff16836040518363ffffffff167c01000000000000000000000000000000000000000000000000000000000281526004016108319291906121c9565b602060405180830381600087803b15801561084b57600080fd5b505af115801561085f573d6000803e3d6000fd5b505050506040513d601f19601f820116820180604052506108839190810190611cce565b50606060026040519080825280602002602001820160405280156108b65781602001602082028038833980820191505090505b509050600360009054906101000a900473ffffffffffffffffffffffffffffffffffffffff168160008151811015156108eb57fe5b9060200190602002019073ffffffffffffffffffffffffffffffffffffffff16908173ffffffffffffffffffffffffffffffffffffffff1681525050600260009054906101000a900473ffffffffffffffffffffffffffffffffffffffff1681600181518110151561095957fe5b9060200190602002019073ffffffffffffffffffffffffffffffffffffffff16908173ffffffffffffffffffffffffffffffffffffffff16815250506060600160009054906101000a900473ffffffffffffffffffffffffffffffffffffffff1673ffffffffffffffffffffffffffffffffffffffff1663d06ca61f84846040518363ffffffff167c0100000000000000000000000000000000000000000000000000000000028152600401610a1092919061238d565b60006040518083038186803b158015610a2857600080fd5b505afa158015610a3c573d6000803e3d6000fd5b505050506040513d6000823e3d601f19601f82011682018060405250610a659190810190611c8d565b9050600160009054906101000a900473ffffffffffffffffffffffffffffffffffffffff1673ffffffffffffffffffffffffffffffffffffffff166318cbafe584836001815181101515610ab557fe5b906020019060200201518530426040518663ffffffff167c0100000000000000000000000000000000000000000000000000000000028152600401610afe959493929190612409565b600060405180830381600087803b158015610b1857600080fd5b505af1158015610b2c573d6000803e3d6000fd5b505050506040513d6000823e3d601f19601f82011682018060405250610b559190810190611c8d565b5060008060009054906101000a900473ffffffffffffffffffffffffffffffffffffffff1673ffffffffffffffffffffffffffffffffffffffff1663809a9e5573eeeeeeeeeeeeeeeeeeeeeeeeeeeeeeeeeeeeeeee600360009054906101000a900473ffffffffffffffffffffffffffffffffffffffff163073ffffffffffffffffffffffffffffffffffffffff16316040518463ffffffff167c0100000000000000000000000000000000000000000000000000000000028152600401610c1f93929190612229565b604080518083038186803b158015610c3657600080fd5b505afa158015610c4a573d6000803e3d6000fd5b505050506040513d601f19601f82011682018060405250610c6e9190810190611d49565b5090506000809054906101000a900473ffffffffffffffffffffffffffffffffffffffff1673ffffffffffffffffffffffffffffffffffffffff16637a2a04563073ffffffffffffffffffffffffffffffffffffffff1631600360009054906101000a900473ffffffffffffffffffffffffffffffffffffffff16846040518463ffffffff167c0100000000000000000000000000000000000000000000000000000000028152600401610d23929190612260565b6020604051808303818588803b158015610d3c57600080fd5b505af1158015610d50573d6000803e3d6000fd5b50505050506040513d601f19601f82011682018060405250610d759190810190611d20565b505050505b8160200151600360009054906101000a900473ffffffffffffffffffffffffffffffffffffffff1673ffffffffffffffffffffffffffffffffffffffff166370a08231306040518263ffffffff167c0100000000000000000000000000000000000000000000000000000000028152600401610df691906121ae565b60206040518083038186803b158015610e0e57600080fd5b505afa158015610e22573d6000803e3d6000fd5b505050506040513d601f19601f82011682018060405250610e469190810190611d20565b10151515610e89576040517f08c379a0000000000000000000000000000000000000000000000000000000008152600401610e8090612317565b60405180910390fd5b60008260200151600360009054906101000a900473ffffffffffffffffffffffffffffffffffffffff1673ffffffffffffffffffffffffffffffffffffffff166370a08231306040518263ffffffff167c0100000000000000000000000000000000000000000000000000000000028152600401610f0791906121ae565b60206040518083038186803b158015610f1f57600080fd5b505afa158015610f33573d6000803e3d6000fd5b505050506040513d601f19601f82011682018060405250610f579190810190611d20565b039050600360009054906101000a900473ffffffffffffffffffffffffffffffffffffffff1673ffffffffffffffffffffffffffffffffffffffff1663a9059cbb600460009054906101000a900473ffffffffffffffffffffffffffffffffffffffff16836040518363ffffffff167c0100000000000000000000000000000000000000000000000000000000028152600401610ff59291906121c9565b602060405180830381600087803b15801561100f57600080fd5b505af1158015611023573d6000803e3d6000fd5b505050506040513d601f19601f820116820180604052506110479190810190611cce565b507fa89b78c8d1240154beaf4b865d2d7cb794ac0f358c618aef3de102cf4a4ee42d8360000151824260405161107f939291906122c0565b60405180910390a1505050505050565b600084905060006110a08686611340565b905060006110ad8561152a565b90508573ffffffffffffffffffffffffffffffffffffffff1663095ea7b388836040518363ffffffff167c01000000000000000000000000000000000000000000000000000000000281526004016111069291906121c9565b602060405180830381600087803b15801561112057600080fd5b505af1158015611134573d6000803e3d6000fd5b505050506040513d601f19601f820116820180604052506111589190810190611cce565b506060600360405190808252806020026020018201604052801561119657816020015b611183611820565b81526020019060019003908161117b5790505b5090506111a38387611547565b8160008151811015156111b257fe5b9060200190602002018190525061120660408051908101604052808760018111156111d957fe5b8152602001848152506040516020016111f29190612357565b604051602081830303815290604052611603565b81600181518110151561121557fe5b9060200190602002018190525061122c83836116af565b81600281518110151561123b57fe5b906020019060200201819052506060600160405190808252806020026020018201604052801561128557816020015b61127261188d565b81526020019060019003908161126a5790505b50905061129061176b565b81600081518110151561129f57fe5b906020019060200201819052508473ffffffffffffffffffffffffffffffffffffffff1663a67a6a4582846040518363ffffffff167c01000000000000000000000000000000000000000000000000000000000281526004016113039291906121f2565b600060405180830381600087803b15801561131d57600080fd5b505af1158015611331573d6000803e3d6000fd5b50505050505050505050505050565b60008083905060008173ffffffffffffffffffffffffffffffffffffffff1663295c39a56040518163ffffffff167c010000000000000000000000000000000000000000000000000000000002815260040160206040518083038186803b1580156113aa57600080fd5b505afa1580156113be573d6000803e3d6000fd5b505050506040513d601f19601f820116820180604052506113e29190810190611d20565b9050600080600090505b828110156114e8578373ffffffffffffffffffffffffffffffffffffffff1663062bd3e9826040518263ffffffff167c01000000000000000000000000000000000000000000000000000000000281526004016114499190612372565b60206040518083038186803b15801561146157600080fd5b505afa158015611475573d6000803e3d6000fd5b505050506040513d601f19601f820116820180604052506114999190810190611b9a565b91508573ffffffffffffffffffffffffffffffffffffffff168273ffffffffffffffffffffffffffffffffffffffff1614156114db5780945050505050611524565b80806001019150506113ec565b506040517f08c379a000000000000000000000000000000000000000000000000000000000815260040161151b90612337565b60405180910390fd5b92915050565b60006115406002836117a490919063ffffffff16565b9050919050565b61154f6118bd565b610100604051908101604052806001600881111561156957fe5b8152602001600081526020016080604051908101604052806000151581526020016000600181111561159757fe5b8152602001600060018111156115a957fe5b8152602001858152508152602001848152602001600081526020013073ffffffffffffffffffffffffffffffffffffffff168152602001600081526020016020604051908101604052806000815250815250905092915050565b61160b6118bd565b6101006040519081016040528060088081111561162457fe5b8152602001600081526020016080604051908101604052806000151581526020016000600181111561165257fe5b81526020016000600181111561166457fe5b81526020016000815250815260200160008152602001600081526020013073ffffffffffffffffffffffffffffffffffffffff16815260200160008152602001838152509050919050565b6116b76118bd565b61010060405190810160405280600060088111156116d157fe5b815260200160008152602001608060405190810160405280600115158152602001600060018111156116ff57fe5b81526020016000600181111561171157fe5b8152602001858152508152602001848152602001600081526020013073ffffffffffffffffffffffffffffffffffffffff168152602001600081526020016020604051908101604052806000815250815250905092915050565b61177361192a565b60408051908101604052803073ffffffffffffffffffffffffffffffffffffffff1681526020016001815250905090565b60008082840190508381101515156117f1576040517f08c379a00000000000000000000000000000000000000000000000000000000081526004016117e8906122f7565b60405180910390fd5b8091505092915050565b60408051908101604052806000600181111561181357fe5b8152602001600081525090565b610160604051908101604052806000600881111561183a57fe5b81526020016000815260200161184e61195a565b81526020016000815260200160008152602001600073ffffffffffffffffffffffffffffffffffffffff16815260200160008152602001606081525090565b6040805190810160405280600073ffffffffffffffffffffffffffffffffffffffff168152602001600081525090565b61016060405190810160405280600060088111156118d757fe5b8152602001600081526020016118eb61195a565b81526020016000815260200160008152602001600073ffffffffffffffffffffffffffffffffffffffff16815260200160008152602001606081525090565b6040805190810160405280600073ffffffffffffffffffffffffffffffffffffffff168152602001600081525090565b6080604051908101604052806000151581526020016000600181111561197c57fe5b81526020016000600181111561198e57fe5b8152602001600081525090565b60006119a782356125fe565b905092915050565b60006119bb82516125fe565b905092915050565b600082601f83011215156119d657600080fd5b81516119e96119e482612490565b612463565b91508181835260208401935060208101905083856020840282011115611a0e57600080fd5b60005b83811015611a3e5781611a248882611b86565b845260208401935060208301925050600181019050611a11565b5050505092915050565b6000611a548251612610565b905092915050565b600082601f8301121515611a6f57600080fd5b8135611a82611a7d826124b8565b612463565b91508082526020830160208301858383011115611a9e57600080fd5b611aa98382846126ab565b50505092915050565b6000611abe823561261c565b905092915050565b6000611ad2825161261c565b905092915050565b600060408284031215611aec57600080fd5b611af66040612463565b90506000611b0684828501611ac6565b6000830152506020611b1a84828501611b86565b60208301525092915050565b600060408284031215611b3857600080fd5b611b426040612463565b90506000611b528482850161199b565b6000830152506020611b6684828501611b72565b60208301525092915050565b6000611b7e8235612635565b905092915050565b6000611b928251612635565b905092915050565b600060208284031215611bac57600080fd5b6000611bba848285016119af565b91505092915050565b60008060008060808587031215611bd957600080fd5b6000611be78782880161199b565b9450506020611bf88782880161199b565b9350506040611c0987828801611b72565b9250506060611c1a87828801611ab2565b91505092959194509250565b600080600060808486031215611c3b57600080fd5b6000611c498682870161199b565b9350506020611c5a86828701611b26565b925050606084013567ffffffffffffffff811115611c7757600080fd5b611c8386828701611a5c565b9150509250925092565b600060208284031215611c9f57600080fd5b600082015167ffffffffffffffff811115611cb957600080fd5b611cc5848285016119c3565b91505092915050565b600060208284031215611ce057600080fd5b6000611cee84828501611a48565b91505092915050565b600060408284031215611d0957600080fd5b6000611d1784828501611ada565b91505092915050565b600060208284031215611d3257600080fd5b6000611d4084828501611b86565b91505092915050565b60008060408385031215611d5c57600080fd5b6000611d6a85828601611b86565b9250506020611d7b85828601611b86565b9150509250929050565b611d8e8161255e565b82525050565b6000611d9f8261250b565b808452602084019350611db1836124e4565b60005b82811015611de357611dc7868351611d85565b611dd082612537565b9150602086019550600181019050611db4565b50849250505092915050565b6000611dfa82612516565b80845260208401935083602082028501611e13856124f1565b60005b84811015611e4c578383038852611e2e838351612039565b9250611e3982612544565b9150602088019750600181019050611e16565b508196508694505050505092915050565b6000611e6882612521565b808452602084019350611e7a836124fe565b60005b82811015611eac57611e90868351612170565b611e9982612551565b9150604086019550600181019050611e7d565b50849250505092915050565b611ec181612570565b82525050565b6000611ed28261252c565b808452611ee68160208601602086016126ba565b611eef816126ed565b602085010191505092915050565b611f068161263f565b82525050565b611f1581612663565b82525050565b611f2481612675565b82525050565b611f3381612687565b82525050565b611f4281612699565b82525050565b6000601b82527f536166654d6174683a206164646974696f6e206f766572666c6f7700000000006020830152604082019050919050565b6000602482527f4e6f7420656e6f7567682066756e647320746f2072657061792064796478206c60208301527f6f616e21000000000000000000000000000000000000000000000000000000006040830152606082019050919050565b6000602482527f4e6f206d61726b6574496420666f756e6420666f722070726f7669646564207460208301527f6f6b656e000000000000000000000000000000000000000000000000000000006040830152606082019050919050565b6000610160830160008301516120526000860182611f0c565b506020830151612065602086018261219f565b506040830151612078604086018261211b565b50606083015161208b60c086018261219f565b50608083015161209e60e086018261219f565b5060a08301516120b2610100860182611d85565b5060c08301516120c661012086018261219f565b5060e08301518482036101408601526120df8282611ec7565b9150508091505092915050565b6040820160008201516121026000850182611f39565b506020820151612115602085018261219f565b50505050565b6080820160008201516121316000850182611eb8565b5060208201516121446020850182611f1b565b5060408201516121576040850182611f2a565b50606082015161216a606085018261219f565b50505050565b6040820160008201516121866000850182611d85565b506020820151612199602085018261219f565b50505050565b6121a8816125f4565b82525050565b60006020820190506121c36000830184611d85565b92915050565b60006040820190506121de6000830185611d85565b6121eb602083018461219f565b9392505050565b6000604082019050818103600083015261220c8185611e5d565b905081810360208301526122208184611def565b90509392505050565b600060608201905061223e6000830186611efd565b61224b6020830185611efd565b612258604083018461219f565b949350505050565b60006040820190506122756000830185611efd565b612282602083018461219f565b9392505050565b600060608201905061229e6000830186611efd565b6122ab602083018561219f565b6122b8604083018461219f565b949350505050565b60006060820190506122d56000830186611f39565b6122e2602083018561219f565b6122ef604083018461219f565b949350505050565b6000602082019050818103600083015261231081611f48565b9050919050565b6000602082019050818103600083015261233081611f7f565b9050919050565b6000602082019050818103600083015261235081611fdc565b9050919050565b600060408201905061236c60008301846120ec565b92915050565b6000602082019050612387600083018461219f565b92915050565b60006040820190506123a2600083018561219f565b81810360208301526123b48184611d94565b90509392505050565b60006080820190506123d2600083018761219f565b81810360208301526123e48186611d94565b90506123f36040830185611d85565b612400606083018461219f565b95945050505050565b600060a08201905061241e600083018861219f565b61242b602083018761219f565b818103604083015261243d8186611d94565b905061244c6060830185611d85565b612459608083018461219f565b9695505050505050565b6000604051905081810181811067ffffffffffffffff8211171561248657600080fd5b8060405250919050565b600067ffffffffffffffff8211156124a757600080fd5b602082029050602081019050919050565b600067ffffffffffffffff8211156124cf57600080fd5b601f19601f8301169050602081019050919050565b6000602082019050919050565b6000602082019050919050565b6000602082019050919050565b600081519050919050565b600081519050919050565b600081519050919050565b600081519050919050565b6000602082019050919050565b6000602082019050919050565b6000602082019050919050565b6000612569826125d4565b9050919050565b60008115159050919050565b600060098210151561258a57fe5b819050919050565b60006002821015156125a057fe5b819050919050565b60006002821015156125b657fe5b819050919050565b60006002821015156125cc57fe5b819050919050565b600073ffffffffffffffffffffffffffffffffffffffff82169050919050565b6000819050919050565b6000612609826125d4565b9050919050565b60008115159050919050565b600060028210151561262d57600080fd5b819050919050565b6000819050919050565b600061264a82612651565b9050919050565b600061265c826125d4565b9050919050565b600061266e8261257c565b9050919050565b600061268082612592565b9050919050565b6000612692826125a8565b9050919050565b60006126a4826125be565b9050919050565b82818337600083830152505050565b60005b838110156126d85780820151818401526020810190506126bd565b838111156126e7576000848401525b50505050565b6000601f19601f830116905091905056fea265627a7a72305820e861cc0871f467ce6a6761117fd42678af7043731a4a45e235b9dff2f5913cb96c6578706572696d656e74616cf50037",
  "source": "pragma solidity ^0.5.0;\npragma experimental ABIEncoderV2;\n\nimport \"@studydefi/money-legos/dydx/contracts/DydxFlashloanBase.sol\";\nimport \"@studydefi/money-legos/dydx/contracts/ICallee.sol\";\nimport { KyberNetworkProxy as IKyberNetworkProxy } from '@studydefi/money-legos/kyber/contracts/KyberNetworkProxy.sol';\n\nimport \"@openzeppelin/contracts/token/ERC20/IERC20.sol\";\nimport './IUniswapV2Router02.sol';\nimport './IWeth.sol';\n\ncontract Flashloan is ICallee, DydxFlashloanBase {\n    enum Direction { KyberToUniswap, UniswapToKyber } \n    struct ArbInfo {\n        Direction direction;\n        uint repayAmount;\n    }\n\n    event NewArbitrage (\n      Direction direction,\n      uint profit,\n      uint date\n    );\n\n    IKyberNetworkProxy kyber;\n    IUniswapV2Router02 uniswap;\n    IWeth weth;\n    IERC20 dai;\n    address beneficiary;\n    address constant KYBER_ETH_ADDRESS = 0xEeeeeEeeeEeEeeEeEeEeeEEEeeeeEeeeeeeeEEeE;\n\n    constructor(\n        address kyberAddress,\n        address uniswapAddress,\n        address wethAddress,\n        address daiAddress,\n        address beneficiaryAddress\n    ) public {\n      kyber = IKyberNetworkProxy(kyberAddress);\n      uniswap = IUniswapV2Router02(uniswapAddress);\n      weth = IWeth(wethAddress);\n      dai = IERC20(daiAddress);\n      beneficiary = beneficiaryAddress;\n    }\n\n    // This is the function that will be called postLoan\n    // i.e. Encode the logic to handle your flashloaned funds here\n    function callFunction(\n        address sender,\n        Account.Info memory account,\n        bytes memory data\n    ) public {\n        ArbInfo memory arbInfo = abi.decode(data, (ArbInfo));\n        uint256 balanceDai = dai.balanceOf(address(this));\n\n        if(arbInfo.direction == Direction.KyberToUniswap) {\n          //Buy ETH on Kyber\n          dai.approve(address(kyber), balanceDai); \n          (uint expectedRate, ) = kyber.getExpectedRate(\n            dai, \n            IERC20(KYBER_ETH_ADDRESS), \n            balanceDai\n          );\n          kyber.swapTokenToEther(dai, balanceDai, expectedRate);\n\n          //Sell ETH on Uniswap\n          address[] memory path = new address[](2);\n          path[0] = address(weth);\n          path[1] = address(dai);\n          uint[] memory minOuts = uniswap.getAmountsOut(address(this).balance, path); \n          uniswap.swapExactETHForTokens.value(address(this).balance)(\n            minOuts[1], \n            path, \n            address(this), \n            now\n          );\n        } else {\n          //Buy ETH on Uniswap\n          dai.approve(address(uniswap), balanceDai); \n          address[] memory path = new address[](2);\n          path[0] = address(dai);\n          path[1] = address(weth);\n          uint[] memory minOuts = uniswap.getAmountsOut(balanceDai, path); \n          uniswap.swapExactTokensForETH(\n            balanceDai, \n            minOuts[1], \n            path, \n            address(this), \n            now\n          );\n\n          //Sell ETH on Kyber\n          (uint expectedRate, ) = kyber.getExpectedRate(\n            IERC20(KYBER_ETH_ADDRESS), \n            dai, \n            address(this).balance\n          );\n          kyber.swapEtherToToken.value(address(this).balance)(\n            dai, \n            expectedRate\n          );\n        }\n\n        require(\n            dai.balanceOf(address(this)) >= arbInfo.repayAmount,\n            \"Not enough funds to repay dydx loan!\"\n        );\n\n        uint profit = dai.balanceOf(address(this)) - arbInfo.repayAmount; \n        dai.transfer(beneficiary, profit);\n        emit NewArbitrage(arbInfo.direction, profit, now);\n    }\n\n    function initiateFlashloan(\n      address _solo, \n      address _token, \n      uint256 _amount, \n      Direction _direction)\n        external\n    {\n        ISoloMargin solo = ISoloMargin(_solo);\n\n        // Get marketId from token address\n        uint256 marketId = _getMarketIdFromTokenAddress(_solo, _token);\n\n        // Calculate repay amount (_amount + (2 wei))\n        // Approve transfer from\n        uint256 repayAmount = _getRepaymentAmountInternal(_amount);\n        IERC20(_token).approve(_solo, repayAmount);\n\n        // 1. Withdraw $\n        // 2. Call callFunction(...)\n        // 3. Deposit back $\n        Actions.ActionArgs[] memory operations = new Actions.ActionArgs[](3);\n\n        operations[0] = _getWithdrawAction(marketId, _amount);\n        operations[1] = _getCallAction(\n            // Encode MyCustomData for callFunction\n            abi.encode(ArbInfo({direction: _direction, repayAmount: repayAmount}))\n        );\n        operations[2] = _getDepositAction(marketId, repayAmount);\n\n        Account.Info[] memory accountInfos = new Account.Info[](1);\n        accountInfos[0] = _getAccountInfo();\n\n        solo.operate(accountInfos, operations);\n    }\n}",
  "sourcePath": "/home/lav/Documents/Backuop/BlockChain/Projects/Flashloans/contracts/Flashloan.sol",
  "compiler": {
    "name": "solc",
    "version": "0.5.0+commit.1d4f565a.Emscripten.clang"
  },
  "schemaVersion": "3.4.7",
  "updatedAt": "2022-07-27T08:11:59.186Z",
  "devdoc": {
    "methods": {}
  },
  "userdoc": {
    "methods": {}
  }
}